:100000000C9451000C946E000C946E000C946E00D5
:100010000C946E000C94B2000C946E000C946E0064
:100020000C946E000C946E000C946E000C946E0098
:100030000C946E000C946E000C946E000C946E0088
:100040000C946E000C946E000C946E000C946E0078
:100050000C946E000C946E000C946E000C946E0068
:100060000C946E000C946E005061726B204D6F64A6
:10007000653A2044697361626C6564005061726B1B
:10008000204D6F64653A20456E61626C6564005373
:10009000797374656D205374617475733A204F4B96
:1000A000000011241FBECFEFD8E0DEBFCDBF11E0AE
:1000B000A0E0B1E0EAECF2E002C005900D92AE30B3
:1000C000B107D9F721E0AEE0B1E001C01D92A43143
:1000D000B207E1F70E94E3000C9463010C94000066
:1000E000CF93C82F8A3019F48DE00E947000809160
:1000F000C00085FFFCCFC093C60080E090E0CF91A8
:1001000008951092C50080E18093C400E0ECF0E017
:1001100080818260808386E08093C20088E1809342
:10012000C10008954098419842984398449A8CE7BA
:1001300090E00E9432018FE99FE00197F1F700C043
:1001400000000895409A419A429A439A449888E65A
:1001500090E00E9432018FE99FE00197F1F700C023
:10016000000008951F920F920FB60F9211242F9343
:100170003F934F935F936F937F938F939F93AF932F
:10018000BF93EF93FF9383B78E7F83BF8091680007
:100190008B7F809368004A9B03C00E94920002C03C
:1001A0000E94A200FF91EF91BF91AF919F918F911B
:1001B0007F916F915F914F913F912F910F900FBE63
:1001C0000F901F901895389A399A3A9A3B9A3C9A10
:1001D000259A52985A9A0E94810080E091E090936B
:1001E0001101809310012D9A8FE890E00E94320156
:1001F0008FE99FE00197F1F700C000000E94920094
:1002000020E690E480916400816080936400809196
:1002100064008460809364008091640080688093AF
:100220006400809164008860809364008091640021
:1002300080648093640083B7817F846083BF83B7C9
:10024000816083BFF89480916D00846080936D001D
:100250008091680084608093680025BF95BF789482
:100260008895D0CF0F931F93CF93DF938C01E091AC
:100270001001F0911101838181FF1BC0D0E0C0E02B
:10028000F80184916091100170911101DB011896C1
:10029000ED91FC911997882341F00995892B11F074
:1002A000DFEFCFEF0F5F1F4FEBCF8AE00995892B70
:1002B00019F08FEF9FEF02C08D2F9C2FDF91CF9110
:0A02C0001F910F910895F894FFCFED
:0E02CA000000000200000000700000000000B4
:00000001FF
