:100000000C943D000C945A000C945A000C945A0025
:100010000C945A000C94A0000C945A000C945A00B2
:100020000C945A000C945A000C945A000C945A00E8
:100030000C945A000C945A000C945A000C945A00D8
:100040000C945A000C945A000C945A000C945A00C8
:100050000C945A000C945A000C945A000C945A00B8
:100060000C945A000C945A0053797374656D2053A4
:1000700074617475733A204F4B0011241FBECFEF8B
:10008000D8E0DEBFCDBF11E0A0E0B1E0ECE0F3E0EE
:1000900002C005900D92A633B107D9F721E0A6E37F
:1000A000B1E001C01D92AC33B207E1F70E94D1006C
:1000B0000C9484010C940000CF93C82F8A3019F45B
:1000C0008DE00E945C008091C00085FFFCCFC09352
:1000D000C600CF9108951092C50080E18093C400BE
:1000E000E0ECF0E080818260808386E08093C20053
:1000F00088E18093C1000895CF93DF93EC01E991EB
:10010000F0E08491882339F0849160E071E090E020
:100110000E941801F4CFDF91CF9108954098419843
:1001200042984398449A8EE091E00C945401409A8E
:10013000419A429A439A449881E291E00C94540186
:100140001F920F920FB60F9211242F933F934F934C
:100150005F936F937F938F939F93AF93BF93EF932F
:10016000FF9383B78E7F83BF809168008B7F8093DE
:1001700068004A9B03C00E948E0002C00E94970044
:10018000FF91EF91BF91AF919F918F917F916F916F
:100190005F914F913F912F910F900FBE0F901F9045
:1001A0001895389A399A3A9A3B9A3C9A259A5298D5
:1001B0005A9A0E946B0080E091E0909339018093FD
:1001C00038012D9A88E690E00E947C0020E690E4B9
:1001D00080916400816080936400809164008460F9
:1001E00080936400809164008068809364008091B3
:1001F00064008860809364008091640080648093D0
:10020000640083B7817F846083BF83B7816083BFCD
:10021000F89480916D00846080936D0080916800F7
:1002200084608093680025BF95BF78948895D0CF6F
:100230000F931F93CF93DF93FB01238121FD03C015
:100240008FEF9FEF2CC022FF16C04681578124817B
:1002500035814217530744F4A081B1819D012F5F7E
:100260003F4F318320838C93268137812F5F3F4F0F
:100270003783268314C08B01EC01FB010084F185D8
:10028000E02D0995892BE1F6D80116968D919C9168
:100290001797019617969C938E931697CE01DF9130
:1002A000CF911F910F9108950F931F93CF93DF93D9
:1002B000E0913801F0913901238121FF1BC08C01AD
:1002C000D0E0C0E0F80181918F0160913801709118
:1002D0003901DB011896ED91FC911997882331F0D3
:1002E0000995892B79F3DFEFCFEFECCF8AE0099501
:1002F000892B19F08FEF9FEF02C08D2F9C2FDF917C
:0C030000CF911F910F910895F894FFCF4A
:10030C0000000002000000005C00000000005061D2
:10031C00726B204D6F64653A20456E61626C65644A
:10032C00005061726B204D6F64653A2044697361B3
:06033C00626C6564000024
:00000001FF
