:100000000C9434000C9451000C9451000C94510049
:100010000C9451000C9465000C9451000C94510008
:100020000C9451000C9451000C9451000C9451000C
:100030000C9451000C9451000C9451000C945100FC
:100040000C9451000C9451000C9451000C945100EC
:100050000C9451000C9451000C9451000C945100DC
:100060000C9451000C94510011241FBECFEFD8E026
:10007000DEBFCDBF11E0A0E0B1E0EAE4F2E002C0F3
:1000800005900D92A635B107D9F721E0A6E5B1E0BC
:1000900001C01D92AC35B207E1F70E94B5000C9487
:1000A00023010C94000040984198429843985E9830
:1000B0008CE191E00C94F300409A419A429A439A61
:1000C0005E9A8FE291E00C94F3001F920F920FB6AC
:1000D0000F9211242F933F934F935F936F937F93CE
:1000E0008F939F93AF93BF93EF93FF934A9B03C06C
:1000F0000E94530002C00E945C00FF91EF91BF91EB
:10010000AF919F918F917F916F915F914F913F91AF
:100110002F910F900FBE0F901F9018951092C50051
:1001200080E18093C400E0ECF0E080818260808315
:1001300086E08093C20088E18093C1000895CF9348
:10014000C82F8A3019F48DE00E949F008091C00072
:1001500085FFFCCFC093C600CF9108958091C00069
:1001600087FFFCCF8091C600089510927A001CBCD6
:100170008091640081608093640080916400846059
:100180008093640080916400806880936400809113
:100190006400886080936400389A399A3A9A3B9A4E
:1001A000559A569A52985A9A0E948E008EE091E083
:1001B000909359018093580180E091E0909357010A
:1001C0008093560180916D00846080936D008091D2
:1001D000680084608093680078945D9883E491E07F
:1001E0000E94F300FFCF0F931F93CF93DF93E09113
:1001F0005801F0915901238121FF1BC08C01D0E0EF
:10020000C0E0F80181918F0160915801709159010E
:10021000DB011896ED91FC911997882331F009952F
:10022000892B79F3DFEFCFEFECCF8AE00995892BAB
:1002300019F08FEF9FEF02C08D2F9C2FDF91CF9190
:0A0240001F910F910895F894FFCF6D
:10024A0000000001000000000000AE0000000000F5
:10025A000002000000009F00000000005061726B65
:10026A00204D6F64653A20456E61626C656400508A
:10027A0061726B204D6F64653A2044697361626CE8
:10028A0065640053797374656D2053746174757372
:06029A003A204F4B00006A
:00000001FF
